{
  "_format": "hh-sol-artifact-1",
  "contractName": "WavePortal",
  "sourceName": "contracts/WavePortal.sol",
  "abi": [
    {
      "inputs": [],
      "stateMutability": "nonpayable",
      "type": "constructor"
    },
    {
      "inputs": [],
      "name": "getTotalWaves",
      "outputs": [
        {
          "internalType": "uint256",
          "name": "",
          "type": "uint256"
        }
      ],
      "stateMutability": "view",
      "type": "function"
    },
    {
      "inputs": [],
      "name": "getTotalWavesAllUsers",
      "outputs": [],
      "stateMutability": "nonpayable",
      "type": "function"
    },
    {
      "inputs": [],
      "name": "getUserWaves",
      "outputs": [
        {
          "internalType": "uint256",
          "name": "",
          "type": "uint256"
        }
      ],
      "stateMutability": "view",
      "type": "function"
    },
    {
      "inputs": [],
      "name": "wave",
      "outputs": [],
      "stateMutability": "nonpayable",
      "type": "function"
    }
  ],
  "bytecode": "0x608060405234801561001057600080fd5b506100596040518060400160405280600b81526020017f48656c6c6f20576f726c6400000000000000000000000000000000000000000081525061005e60201b6104121760201c565b6101d8565b6100fa8160405160240161007291906101b6565b6040516020818303038152906040527f41304fac000000000000000000000000000000000000000000000000000000007bffffffffffffffffffffffffffffffffffffffffffffffffffffffff19166020820180517bffffffffffffffffffffffffffffffffffffffffffffffffffffffff83818316178352505050506100fd60201b60201c565b50565b60008151905060006a636f6e736f6c652e6c6f679050602083016000808483855afa5050505050565b600081519050919050565b600082825260208201905092915050565b60005b83811015610160578082015181840152602081019050610145565b60008484015250505050565b6000601f19601f8301169050919050565b600061018882610126565b6101928185610131565b93506101a2818560208601610142565b6101ab8161016c565b840191505092915050565b600060208201905081810360008301526101d0818461017d565b905092915050565b610980806101e76000396000f3fe608060405234801561001057600080fd5b506004361061004c5760003560e01c80634ad88b38146100515780636fe15b441461006f5780639a2cdc0814610079578063e8e660fb14610097575b600080fd5b6100596100a1565b60405161006691906106c4565b60405180910390f35b6100776100e8565b005b6100816102a6565b60405161008e91906106c4565b60405180910390f35b61009f6102f1565b005b6000600360003373ffffffffffffffffffffffffffffffffffffffff1673ffffffffffffffffffffffffffffffffffffffff16815260200190815260200160002054905090565b60016000808282546100fa919061070e565b92505081905550600260003373ffffffffffffffffffffffffffffffffffffffff1673ffffffffffffffffffffffffffffffffffffffff16815260200190815260200160002060009054906101000a900460ff1661020e576001339080600181540180825580915050600190039060005260206000200160009091909190916101000a81548173ffffffffffffffffffffffffffffffffffffffff021916908373ffffffffffffffffffffffffffffffffffffffff1602179055506001600260003373ffffffffffffffffffffffffffffffffffffffff1673ffffffffffffffffffffffffffffffffffffffff16815260200190815260200160002060006101000a81548160ff0219169083151502179055505b6001600360003373ffffffffffffffffffffffffffffffffffffffff1673ffffffffffffffffffffffffffffffffffffffff168152602001908152602001600020600082825461025e919061070e565b925050819055506102a46040518060400160405280600d81526020017f2573206861732077617665642100000000000000000000000000000000000000815250336104ab565b565b60006102e96040518060400160405280601781526020017f5765206861766520256420746f74616c20776176657321000000000000000000815250600054610547565b600054905090565b60005b60018054905081101561040f576103fc6040518060400160405280601a81526020017f557365722025732068617320256420746f74616c2077617665730000000000008152506001838154811061034e5761034d610742565b5b9060005260206000200160009054906101000a900473ffffffffffffffffffffffffffffffffffffffff16600360006001868154811061039157610390610742565b5b9060005260206000200160009054906101000a900473ffffffffffffffffffffffffffffffffffffffff1673ffffffffffffffffffffffffffffffffffffffff1673ffffffffffffffffffffffffffffffffffffffff168152602001908152602001600020546105e3565b808061040790610771565b9150506102f4565b50565b6104a8816040516024016104269190610849565b6040516020818303038152906040527f41304fac000000000000000000000000000000000000000000000000000000007bffffffffffffffffffffffffffffffffffffffffffffffffffffffff19166020820180517bffffffffffffffffffffffffffffffffffffffffffffffffffffffff8381831617835250505050610682565b50565b61054382826040516024016104c19291906108ac565b6040516020818303038152906040527f319af333000000000000000000000000000000000000000000000000000000007bffffffffffffffffffffffffffffffffffffffffffffffffffffffff19166020820180517bffffffffffffffffffffffffffffffffffffffffffffffffffffffff8381831617835250505050610682565b5050565b6105df828260405160240161055d9291906108dc565b6040516020818303038152906040527fb60e72cc000000000000000000000000000000000000000000000000000000007bffffffffffffffffffffffffffffffffffffffffffffffffffffffff19166020820180517bffffffffffffffffffffffffffffffffffffffffffffffffffffffff8381831617835250505050610682565b5050565b61067d8383836040516024016105fb9392919061090c565b6040516020818303038152906040527f0d26b925000000000000000000000000000000000000000000000000000000007bffffffffffffffffffffffffffffffffffffffffffffffffffffffff19166020820180517bffffffffffffffffffffffffffffffffffffffffffffffffffffffff8381831617835250505050610682565b505050565b60008151905060006a636f6e736f6c652e6c6f679050602083016000808483855afa5050505050565b6000819050919050565b6106be816106ab565b82525050565b60006020820190506106d960008301846106b5565b92915050565b7f4e487b7100000000000000000000000000000000000000000000000000000000600052601160045260246000fd5b6000610719826106ab565b9150610724836106ab565b925082820190508082111561073c5761073b6106df565b5b92915050565b7f4e487b7100000000000000000000000000000000000000000000000000000000600052603260045260246000fd5b600061077c826106ab565b91507fffffffffffffffffffffffffffffffffffffffffffffffffffffffffffffffff82036107ae576107ad6106df565b5b600182019050919050565b600081519050919050565b600082825260208201905092915050565b60005b838110156107f35780820151818401526020810190506107d8565b60008484015250505050565b6000601f19601f8301169050919050565b600061081b826107b9565b61082581856107c4565b93506108358185602086016107d5565b61083e816107ff565b840191505092915050565b600060208201905081810360008301526108638184610810565b905092915050565b600073ffffffffffffffffffffffffffffffffffffffff82169050919050565b60006108968261086b565b9050919050565b6108a68161088b565b82525050565b600060408201905081810360008301526108c68185610810565b90506108d5602083018461089d565b9392505050565b600060408201905081810360008301526108f68185610810565b905061090560208301846106b5565b9392505050565b600060608201905081810360008301526109268186610810565b9050610935602083018561089d565b61094260408301846106b5565b94935050505056fea264697066735822122054a5de361f25a8acbb15c46b81e80b7b2754b65abfe30ecaf41dbe850167a10d64736f6c63430008110033",
  "linkReferences": {},
  "deployedLinkReferences": {}
}